{
  "_format": "hh-sol-artifact-1",
  "contractName": "durianSupplyChain",
  "sourceName": "contracts/durianSupplyChain/duriansupplyChain.sol",
  "abi": [
    {
      "inputs": [],
      "stateMutability": "payable",
      "type": "constructor"
    },
    {
      "anonymous": false,
      "inputs": [
        {
          "indexed": false,
          "internalType": "uint256",
          "name": "durianCode",
          "type": "uint256"
        }
      ],
      "name": "ProduceByHarvester",
      "type": "event"
    },
    {
      "anonymous": false,
      "inputs": [
        {
          "indexed": false,
          "internalType": "uint256",
          "name": "durianCode",
          "type": "uint256"
        }
      ],
      "name": "PurchasedByConsumer",
      "type": "event"
    },
    {
      "anonymous": false,
      "inputs": [
        {
          "indexed": false,
          "internalType": "uint256",
          "name": "durianCode",
          "type": "uint256"
        }
      ],
      "name": "PurchasedByDistributor",
      "type": "event"
    },
    {
      "anonymous": false,
      "inputs": [
        {
          "indexed": false,
          "internalType": "uint256",
          "name": "durianCode",
          "type": "uint256"
        }
      ],
      "name": "PurchasedByRetailer",
      "type": "event"
    },
    {
      "anonymous": false,
      "inputs": [
        {
          "indexed": false,
          "internalType": "uint256",
          "name": "durianCode",
          "type": "uint256"
        }
      ],
      "name": "RatingByConsumer",
      "type": "event"
    },
    {
      "inputs": [
        {
          "internalType": "uint256",
          "name": "",
          "type": "uint256"
        }
      ],
      "name": "durianCodeArray",
      "outputs": [
        {
          "internalType": "uint256",
          "name": "",
          "type": "uint256"
        }
      ],
      "stateMutability": "view",
      "type": "function"
    },
    {
      "inputs": [
        {
          "internalType": "uint256",
          "name": "_durianCode",
          "type": "uint256"
        }
      ],
      "name": "fetchDurianBufferOne",
      "outputs": [
        {
          "internalType": "uint256",
          "name": "durianToCode",
          "type": "uint256"
        },
        {
          "internalType": "address",
          "name": "ownerID",
          "type": "address"
        },
        {
          "internalType": "string",
          "name": "durianFarm",
          "type": "string"
        },
        {
          "internalType": "uint256",
          "name": "harvestedTime",
          "type": "uint256"
        },
        {
          "internalType": "enum durianSupplyChain.State",
          "name": "durianState",
          "type": "uint8"
        },
        {
          "internalType": "string",
          "name": "durianTree",
          "type": "string"
        }
      ],
      "stateMutability": "view",
      "type": "function"
    },
    {
      "inputs": [
        {
          "internalType": "uint256",
          "name": "_durianCode",
          "type": "uint256"
        }
      ],
      "name": "fetchDurianBufferTwo",
      "outputs": [
        {
          "internalType": "uint256",
          "name": "durianToCode",
          "type": "uint256"
        },
        {
          "internalType": "address",
          "name": "ownerID",
          "type": "address"
        },
        {
          "internalType": "uint256",
          "name": "harvestedDurianPrice",
          "type": "uint256"
        },
        {
          "internalType": "uint256",
          "name": "harvestedTime",
          "type": "uint256"
        },
        {
          "internalType": "uint8",
          "name": "taste",
          "type": "uint8"
        },
        {
          "internalType": "uint8",
          "name": "creaminess",
          "type": "uint8"
        },
        {
          "internalType": "enum durianSupplyChain.State",
          "name": "durianState",
          "type": "uint8"
        }
      ],
      "stateMutability": "view",
      "type": "function"
    },
    {
      "inputs": [],
      "name": "getAllDurianCodes",
      "outputs": [
        {
          "internalType": "uint256[]",
          "name": "",
          "type": "uint256[]"
        }
      ],
      "stateMutability": "view",
      "type": "function"
    },
    {
      "inputs": [],
      "name": "owner",
      "outputs": [
        {
          "internalType": "address",
          "name": "",
          "type": "address"
        }
      ],
      "stateMutability": "view",
      "type": "function"
    },
    {
      "inputs": [
        {
          "internalType": "uint256",
          "name": "_durianCode",
          "type": "uint256"
        },
        {
          "internalType": "string",
          "name": "_durianTree",
          "type": "string"
        },
        {
          "internalType": "string",
          "name": "_durianFarm",
          "type": "string"
        },
        {
          "internalType": "uint256",
          "name": "_durianPrice",
          "type": "uint256"
        }
      ],
      "name": "produceDurianByHarvester",
      "outputs": [],
      "stateMutability": "nonpayable",
      "type": "function"
    },
    {
      "inputs": [
        {
          "internalType": "uint256",
          "name": "_durianCode",
          "type": "uint256"
        }
      ],
      "name": "purchaseDurianByConsumer",
      "outputs": [],
      "stateMutability": "payable",
      "type": "function"
    },
    {
      "inputs": [
        {
          "internalType": "uint256",
          "name": "_durianCode",
          "type": "uint256"
        }
      ],
      "name": "purchaseDurianByDistributor",
      "outputs": [],
      "stateMutability": "payable",
      "type": "function"
    },
    {
      "inputs": [
        {
          "internalType": "uint256",
          "name": "_durianCode",
          "type": "uint256"
        }
      ],
      "name": "purchaseDurianByRetailer",
      "outputs": [],
      "stateMutability": "payable",
      "type": "function"
    },
    {
      "inputs": [
        {
          "internalType": "uint256",
          "name": "_durianCode",
          "type": "uint256"
        },
        {
          "internalType": "uint8",
          "name": "_taste",
          "type": "uint8"
        },
        {
          "internalType": "uint8",
          "name": "_creaminess",
          "type": "uint8"
        }
      ],
      "name": "rateDurianFromConsumer",
      "outputs": [],
      "stateMutability": "nonpayable",
      "type": "function"
    },
    {
      "inputs": [],
      "name": "stockUnit",
      "outputs": [
        {
          "internalType": "uint256",
          "name": "",
          "type": "uint256"
        }
      ],
      "stateMutability": "view",
      "type": "function"
    }
  ],
  "bytecode": "0x60806040526000600181905580546001600160a01b031916331790556116ea8061002a6000396000f3fe6080604052600436106100bc5760003560e01c806390f0c75311610074578063beba37881161004e578063beba3788146101e4578063e4a0044314610204578063fe8d6b941461023257600080fd5b806390f0c7531461018f5780639d736bb6146101a2578063b6dbac86146101c257600080fd5b80632cd1446a116100a55780632cd1446a14610111578063629b7375146101445780638da5cb5b1461015757600080fd5b80630b671700146100c157806311d19185146100fc575b600080fd5b3480156100cd57600080fd5b506100e16100dc3660046113eb565b610248565b6040516100f396959493929190611561565b60405180910390f35b61010f61010a3660046113eb565b610466565b005b34801561011d57600080fd5b5061013161012c3660046113eb565b6106e5565b6040516100f397969594939291906115bb565b61010f6101523660046113eb565b610913565b34801561016357600080fd5b50600054610177906001600160a01b031681565b6040516001600160a01b0390911681526020016100f3565b61010f61019d3660046113eb565b610b7e565b3480156101ae57600080fd5b5061010f6101bd366004611475565b610dec565b3480156101ce57600080fd5b506101d7610fa5565b6040516100f3919061151d565b3480156101f057600080fd5b5061010f6101ff366004611403565b61107c565b34801561021057600080fd5b5061022461021f3660046113eb565b611220565b6040519081526020016100f3565b34801561023e57600080fd5b5061022460015481565b600081815260026020818152604080842081516101208101835281546001600160a01b03168152600182015493810193909352928301805485946060948694859487948694928401919061029b90611638565b80601f01602080910402602001604051908101604052809291908181526020018280546102c790611638565b80156103145780601f106102e957610100808354040283529160200191610314565b820191906000526020600020905b8154815290600101906020018083116102f757829003601f168201915b5050505050815260200160038201805461032d90611638565b80601f016020809104026020016040519081016040528092919081815260200182805461035990611638565b80156103a65780601f1061037b576101008083540402835291602001916103a6565b820191906000526020600020905b81548152906001019060200180831161038957829003601f168201915b5050509183525050600482810154602083015260058301546040830152600683015460609092019160ff16908111156103ef57634e487b7160e01b600052602160045260246000fd5b600481111561040e57634e487b7160e01b600052602160045260246000fd5b81526006919091015460ff6101008204811660208085019190915262010000909204166040928301528201518251606084015160a085015160c08601519590940151929d919c509a5091985091965090945092505050565b80600160008281526002602052604090206006015460ff16600481111561049d57634e487b7160e01b600052602160045260246000fd5b146105155760405162461bcd60e51b815260206004820152603260248201527f44757269616e206973206e6f7420696e2074686520507572636861736564427960448201527f4469737472696275746f722073746174652e000000000000000000000000000060648201526084015b60405180910390fd5b600082815260026020526040902060040154348111156105715760405162461bcd60e51b8152602060048201526017602482015276125b9cdd59999a58da595b9d08199d5b991cc81cd95b9d604a1b604482015260640161050c565b60008381526002602052604090205483906001600160a01b0316348211156105d55760405162461bcd60e51b8152602060048201526017602482015276125b9cdd59999a58da595b9d08199d5b991cc81cd95b9d604a1b604482015260640161050c565b60006105e18334611621565b6040519091506001600160a01b0383169082156108fc029083906000818181858888f1935050505015801561061a573d6000803e3d6000fd5b50600086815260026020526040808220805460049091015491516001600160a01b039091169283926108fc811502929091818181858888f19350505050158015610668573d6000803e3d6000fd5b506000878152600260208190526040909120805473ffffffffffffffffffffffffffffffffffffffff191633178155600601805460ff191660018302179055506040518781527faa7352d10146444c3afd9bd7fb0ae56b0a85e81139536bbec3f1f660fddd7be1906020015b60405180910390a150505050505050565b600081815260026020818152604080842081516101208101835281546001600160a01b03168152600182015493810193909352928301805485948594859485948594859485949390929084019161073b90611638565b80601f016020809104026020016040519081016040528092919081815260200182805461076790611638565b80156107b45780601f10610789576101008083540402835291602001916107b4565b820191906000526020600020905b81548152906001019060200180831161079757829003601f168201915b505050505081526020016003820180546107cd90611638565b80601f01602080910402602001604051908101604052809291908181526020018280546107f990611638565b80156108465780601f1061081b57610100808354040283529160200191610846565b820191906000526020600020905b81548152906001019060200180831161082957829003601f168201915b5050509183525050600482810154602083015260058301546040830152600683015460609092019160ff169081111561088f57634e487b7160e01b600052602160045260246000fd5b60048111156108ae57634e487b7160e01b600052602160045260246000fd5b81526006919091015461010080820460ff90811660208086019190915262010000909304166040909301929092528201518251608084015160a085015160e08601519486015160c090960151939f929e50909c509a5091985091965090945092505050565b806000808281526002602052604090206006015460ff16600481111561094957634e487b7160e01b600052602160045260246000fd5b146109bc5760405162461bcd60e51b815260206004820152602e60248201527f44757269616e206973206e6f7420696e207468652050726f647563654279486160448201527f727665737465722073746174652e000000000000000000000000000000000000606482015260840161050c565b60008281526002602052604090206004015434811115610a185760405162461bcd60e51b8152602060048201526017602482015276125b9cdd59999a58da595b9d08199d5b991cc81cd95b9d604a1b604482015260640161050c565b6000838152600260205260409020600481015490546001600160a01b031634821115610a805760405162461bcd60e51b8152602060048201526017602482015276125b9cdd59999a58da595b9d08199d5b991cc81cd95b9d604a1b604482015260640161050c565b6000610a8c8334611621565b6040519091506001600160a01b0383169082156108fc029083906000818181858888f19350505050158015610ac5573d6000803e3d6000fd5b50600086815260026020526040808220805460049091015491516001600160a01b039091169283926108fc811502929091818181858888f19350505050158015610b13573d6000803e3d6000fd5b50600087815260026020908152604091829020805473ffffffffffffffffffffffffffffffffffffffff191633178155600601805460ff1916600117905590518881527facd9402b9f9e8c15fa7c1819f8393ca56eb61316cc354fc6ac2150aed3ce793191016106d4565b80600260008281526002602052604090206006015460ff166004811115610bb557634e487b7160e01b600052602160045260246000fd5b14610c285760405162461bcd60e51b815260206004820152602f60248201527f44757269616e206973206e6f7420696e2074686520507572636861736564427960448201527f52657461696c65722073746174652e0000000000000000000000000000000000606482015260840161050c565b60008281526002602052604090206004015434811115610c845760405162461bcd60e51b8152602060048201526017602482015276125b9cdd59999a58da595b9d08199d5b991cc81cd95b9d604a1b604482015260640161050c565b6000838152600260205260409020600481015490546001600160a01b031634821115610cec5760405162461bcd60e51b8152602060048201526017602482015276125b9cdd59999a58da595b9d08199d5b991cc81cd95b9d604a1b604482015260640161050c565b6000610cf88334611621565b6040519091506001600160a01b0383169082156108fc029083906000818181858888f19350505050158015610d31573d6000803e3d6000fd5b50600086815260026020526040808220805460049091015491516001600160a01b039091169283926108fc811502929091818181858888f19350505050158015610d7f573d6000803e3d6000fd5b5060008781526002602090815260409182902080543373ffffffffffffffffffffffffffffffffffffffff19909116178155600601805460ff1916600317905590518881527fc7e94446a942a0541d0224ece380a730c85f03db7188fca783225da9255929f791016106d4565b82600360008281526002602052604090206006015460ff166004811115610e2357634e487b7160e01b600052602160045260246000fd5b14610e965760405162461bcd60e51b815260206004820152602f60248201527f44757269616e206973206e6f7420696e2074686520507572636861736564427960448201527f436f6e73756d65722073746174652e0000000000000000000000000000000000606482015260840161050c565b6000848152600260205260409020546001600160a01b0316338114610f235760405162461bcd60e51b815260206004820152603160248201527f4f6e6c79207468652076657269666965642063616c6c65722063616e2070657260448201527f666f726d207468697320616374696f6e2e000000000000000000000000000000606482015260840161050c565b600085815260026020908152604091829020600601805460ff1962ffff001990911661010060ff8a81169190910262ff000019169190911762010000918916919091021716600417905590518681527fc7e94446a942a0541d0224ece380a730c85f03db7188fca783225da9255929f791015b60405180910390a15050505050565b60035460609060009067ffffffffffffffff811115610fd457634e487b7160e01b600052604160045260246000fd5b604051908082528060200260200182016040528015610ffd578160200160208202803683370190505b50905060005b600354811015611076576003818154811061102e57634e487b7160e01b600052603260045260246000fd5b906000526020600020015482828151811061105957634e487b7160e01b600052603260045260246000fd5b60209081029190910101528061106e8161166d565b915050611003565b50919050565b611084611241565b33815260208082018681526040808401878152606085018790524260a086015260808501869052600060c0860181905289815260028086529290208551815473ffffffffffffffffffffffffffffffffffffffff19166001600160a01b039091161781559251600184015551805185946111029385019201906112b5565b506060820151805161111e9160038401916020909101906112b5565b506080820151816004015560a0820151816005015560c08201518160060160006101000a81548160ff0219169083600481111561116b57634e487b7160e01b600052602160045260246000fd5b021790555060e0820151600690910180546101009384015160ff908116620100000262ff000019919094169094029390931662ffff00199093169290921717905560038054600181810183556000929092527fc2575a0e9e593c00f959f8c92f12db2869c3395a3b0502d05e2516446f71f85b0186905580546111ed91611609565b6001556040518581527fa20cf5c0cc38eede6efacb85f9f76c7f8763bb01a4b43287a21fe5df6fe8615b90602001610f96565b6003818154811061123057600080fd5b600091825260209091200154905081565b60405180610120016040528060006001600160a01b031681526020016000815260200160608152602001606081526020016000815260200160008152602001600060048111156112a157634e487b7160e01b600052602160045260246000fd5b815260006020820181905260409091015290565b8280546112c190611638565b90600052602060002090601f0160209004810192826112e35760008555611329565b82601f106112fc57805160ff1916838001178555611329565b82800160010185558215611329579182015b8281111561132957825182559160200191906001019061130e565b50611335929150611339565b5090565b5b80821115611335576000815560010161133a565b600082601f83011261135e578081fd5b813567ffffffffffffffff808211156113795761137961169e565b604051601f8301601f19908116603f011681019082821181831017156113a1576113a161169e565b816040528381528660208588010111156113b9578485fd5b8360208701602083013792830160200193909352509392505050565b803560ff811681146113e657600080fd5b919050565b6000602082840312156113fc578081fd5b5035919050565b60008060008060808587031215611418578283fd5b84359350602085013567ffffffffffffffff80821115611436578485fd5b6114428883890161134e565b94506040870135915080821115611457578384fd5b506114648782880161134e565b949793965093946060013593505050565b600080600060608486031215611489578283fd5b83359250611499602085016113d5565b91506114a7604085016113d5565b90509250925092565b600581106114ce57634e487b7160e01b600052602160045260246000fd5b9052565b60008151808452815b818110156114f7576020818501810151868301820152016114db565b818111156115085782602083870101525b50601f01601f19169290920160200192915050565b6020808252825182820181905260009190848201906040850190845b8181101561155557835183529284019291840191600101611539565b50909695505050505050565b8681526001600160a01b038616602082015260c06040820152600061158960c08301876114d2565b85606084015261159c60808401866114b0565b82810360a08401526115ae81856114d2565b9998505050505050505050565b8781526001600160a01b0387166020820152604081018690526060810185905260ff8481166080830152831660a082015260e081016115fd60c08301846114b0565b98975050505050505050565b6000821982111561161c5761161c611688565b500190565b60008282101561163357611633611688565b500390565b600181811c9082168061164c57607f821691505b6020821081141561107657634e487b7160e01b600052602260045260246000fd5b600060001982141561168157611681611688565b5060010190565b634e487b7160e01b600052601160045260246000fd5b634e487b7160e01b600052604160045260246000fdfea2646970667358221220596e721967d05f09207a3ab7f7611afadf60ae438df04778ba7a6c9484a89ef064736f6c63430008040033",
  "linkReferences": {},
  "deployedLinkReferences": {}
}